:100000000C945E000C9486000C9486000C94860080
:100010000C9486000C9486000C9486000C94EA02E2
:100020000C9486000C9486000C9486000C94860038
:100030000C9486000C9486000C9486000C94860028
:100040000C94A0020C9486000C946C030C94460350
:100050000C9486000C9486000C9486000C94860008
:100060000C9486000C948600000000080002010039
:100070000003040700000000000000000200000070
:1000800000250028002B0000000000240027002A83
:100090000004040404040404040202020202020331
:1000A000030303030301020408102040800102043B
:1000B00008102001020408102000A80511241FBE0A
:1000C000CFEFD8E0DEBFCDBF11E0A0E0B1E0EEEFB2
:1000D000FBE002C005900D92A631B107D9F721E0EF
:1000E000A6E1B1E001C01D92A13DB207E1F710E029
:1000F000CEE5D0E004C02197FE010E94F705CD3582
:10010000D107C9F70E949E030C94FD050C940000D2
:1001100090E0FC01EB55FF4F24918F569F4FFC015F
:100120008491882399F090E0880F991FFC01E9578A
:10013000FF4FA591B491FC01E358FF4F8591949135
:100140008FB7F894EC91E22BEC938FBF08953FB7F3
:10015000F8948091300190913101A0913201B091D9
:10016000330126B5A89B05C02F3F19F00196A11DAC
:10017000B11D3FBFBA2FA92F982F8827BC01CD01F1
:10018000620F711D811D911D42E0660F771F881F50
:10019000991F4A95D1F708959091000189130DC0D8
:1001A000ECE7F0E0E4919FEF90930001E13009F477
:1001B00031C068F1E23009F433C090E0FC01E85945
:1001C000FF4F2491FC01EB55FF4F3491FC01EF569A
:1001D000FF4FE491EE23D1F0222351F0233009F4B4
:1001E0003AC078F5213009F43CC0223009F43DC012
:1001F000F0E0EE0FFF1FE358FF4FA591B4918FB7CA
:10020000F894EC9130953E233C938FBF0895109263
:100210006E00D3CF90916F009D7F90936F00CDCFF4
:10022000909170009D7F9093700091E09093B0004A
:100230009091B100987F94609093B1001092B300B8
:10024000BCCF2730A9F02830C9F0243089F680913E
:1002500080008F7D03C0809180008F778093800025
:10026000C7CF84B58F7784BDC3CF84B58F7DFBCFD7
:100270008091B0008F778093B000BACF8091B000AA
:100280008F7DF9CFAF92BF92CF92DF92EF92FF9224
:100290000F931F93CF93DF936C017B018B01040FAE
:1002A000151FEB015E01AE18BF08C017D10759F04A
:1002B0006991D601ED91FC910190F081E02DC6018C
:1002C0000995892B79F7C501DF91CF911F910F9186
:1002D000FF90EF90DF90CF90BF90AF900895FC011A
:1002E000538D448D252F30E0842F90E0821B930B9B
:1002F000541710F0CF96089501970895FC01918D41
:10030000828D981761F0A28DAE0FBF2FB11D5D9643
:100310008C91928D9F5F9F73928F90E008958FEFE5
:100320009FEF0895FC01918D828D981731F0828D99
:10033000E80FF11D858D90E008958FEF9FEF0895F0
:10034000FC01918D228D892F90E0805C9F4F821B54
:1003500091098F739927089584E391E00E94A00189
:1003600021E0892B09F420E0822F089580E090E0BD
:10037000892B29F00E94AC0181110C940000089592
:10038000FC01A48DA80FB92FB11DA35ABF4F2C910A
:10039000848D90E001968F739927848FA689B78901
:1003A0002C93A089B1898C91837080648C93938DF8
:1003B000848D981306C00288F389E02D80818F7D9B
:1003C00080830895EF92FF920F931F93CF93DF9353
:1003D000EC0181E0888F9B8D8C8D98131AC0E88981
:1003E000F989808185FF15C09FB7F894EE89FF8950
:1003F0006083E889F98980818370806480839FBFEE
:1004000081E090E0DF91CF911F910F91FF90EF90ED
:100410000895F62E0B8D10E00F5F1F4F0F731127FD
:10042000E02E8C8D8E110CC00FB607FCFACFE88938
:10043000F989808185FFF5CFCE010E94C001F1CFFF
:10044000EB8DEC0FFD2FF11DE35AFF4FF0829FB7AC
:10045000F8940B8FEA89FB8980818062CFCFCF939C
:10046000DF93EC01888D8823B9F0AA89BB89E889DC
:10047000F9898C9185FD03C0808186FD0DC00FB682
:1004800007FCF7CF8C9185FFF2CF808185FFEDCF00
:10049000CE010E94C001E9CFDF91CF910895FC0108
:1004A00001900020E9F73197AF01481B590BBC01BF
:1004B00084E391E00C9442018F929F92AF92BF929D
:1004C0000F931F93CF93DF93CDB7DEB7A1970FB6EE
:1004D000F894DEBF0FBECDBF19A2423008F44AE047
:1004E0008E010F5D1F4F842E912CB12CA12CA501E4
:1004F00094010E94D505E62FB901CA01EA30F4F44F
:10050000E05DD801EE938D01232B242B252B79F769
:1005100090E080E0109719F0CD010E944F02A19663
:100520000FB6F894DEBF0FBECDBFDF91CF911F9104
:100530000F91BF90AF909F908F900895E95CE1CFAD
:100540001F920F920FB60F9211242F933F938F9308
:100550009F93AF93BF9380912C0190912D01A09117
:100560002E01B0912F0130912B0123E0230F2D3765
:1005700058F50196A11DB11D20932B0180932C01EC
:1005800090932D01A0932E01B0932F018091300103
:1005900090913101A0913201B09133010196A11DDA
:1005A000B11D8093300190933101A0933201B0933B
:1005B0003301BF91AF919F918F913F912F910F90F8
:1005C0000FBE0F901F90189526E8230F0296A11DCD
:1005D000B11DD2CF1F920F920FB60F9211242F93FD
:1005E0003F934F935F936F937F938F939F93AF93BB
:1005F000BF93EF93FF9380911B0190911C01A091F9
:100600001D01B0911E01892B8A2B8B2BD1F190916A
:100610001601E0911701F0911801808189278083EC
:1006200080911B0190911C01A0911D01B0911E01B0
:10063000181619061A061B069CF480911B0190914E
:100640001C01A0911D01B0911E010197A109B109E2
:1006500080931B0190931C01A0931D01B0931E0178
:10066000FF91EF91BF91AF919F918F917F916F918A
:100670005F914F913F912F910F900FBE0F901F9060
:100680001895809100010E94CC00EACF1F920F9232
:100690000FB60F9211242F933F934F935F936F9355
:1006A0007F938F939F93AF93BF93EF93FF9384E3D5
:1006B00091E00E94C001FF91EF91BF91AF919F9196
:1006C0008F917F916F915F914F913F912F910F90FB
:1006D0000FBE0F901F9018951F920F920FB60F929A
:1006E00011242F938F939F93EF93FF93E0914401F5
:1006F000F09145018081E0914A01F0914B0182FD2A
:100700001BC0908180914D018F5F8F7320914E01AE
:10071000821741F0E0914D01F0E0EC5CFE4F958FC7
:1007200080934D01FF91EF919F918F912F910F90A9
:100730000FBE0F901F9018958081F4CF789484B5E8
:10074000826084BD84B5816084BD85B5826085BDCD
:1007500085B5816085BD80916E00816080936E005B
:10076000109281008091810082608093810080914D
:1007700081008160809381008091800081608093FE
:1007800080008091B10084608093B1008091B000BE
:1007900081608093B00080917A00846080937A00B9
:1007A00080917A00826080937A0080917A008160E3
:1007B00080937A0080917A00806880937A0010920A
:1007C000C10083E00E94880086E00E94880085E0E6
:1007D0000E94880084E00E948800E0914401F0912A
:1007E000450182E08083E0914001F0914101108257
:1007F000E0914201F091430180E1808310924C012D
:10080000E0914801F091490186E08083E091460142
:10081000F0914701808180618083E0914601F091F1
:100820004701808188608083E0914601F091470113
:10083000808180688083E0914601F091470180814A
:100840008F7D80832FB7F89480912C0190912D019A
:10085000A0912E01B0912F012FBF9093280180937A
:10086000270144E9242E40E0342E58EEC52E53E0F3
:10087000D52EE12CF12C8FB7F89480902C0190901C
:100880002D01A0902E01B0902F018FBF90922A01D0
:1008900080922901092C000CAA08BB084AE0C50176
:1008A000B401B7FE0DC06DE284E391E00E94E20165
:1008B00066277727CB01681979098A099B094AE0DD
:1008C0000E945C0283E191E00E944F028090270128
:1008D00090902801092C000CAA08BB084AE0C50129
:1008E000B401B7FE0DC06DE284E391E00E94E20125
:1008F00066277727CB01681979098A099B094AE09D
:100900000E945C0283E191E00E944F0280912901E4
:1009100090912A012091270130912801821B930B8D
:10092000883B9B400CF4F0C0C3E0D0E08091000114
:100930008330B1F4ECE7F0E0149117FDB2C083E02E
:100940000E948800112309F47CC0123009F08DC088
:100950008091B100887F84608093B10089EFE8C006
:100960008F3F09F09EC083E080930001ECE7F0E048
:1009700014911F3F09F495C0113019F148F012305D
:1009800009F43DC017FD8DC083E00E948800DDCFD3
:1009900014BC15BC84B5826084BD85B5816085BDFD
:1009A000F1018491E82FF0E0EE0FFF1FE358FF4FB5
:1009B00085919491E8EAF0E0849180931A0110E027
:1009C000BECF1092800010928100809181008860DB
:1009D0008093810080918100816080938100F1018A
:1009E0008491E82FF0E0EE0FFF1FE358FF4F859151
:1009F0009491E8EAF0E0849180931901A0CF1092DD
:100A0000B0001092B1008091B00082608093B0007D
:100A10008091B10081608093B100F1018491E82F51
:100A2000F0E0EE0FFF1FE358FF4F859194919093F4
:100A3000180180931701E8EAF0E084918093160191
:100A40007ECF85B5887F836085BD89EF87BDC092E5
:100A50002301D0922401E0922501F0922601809199
:100A60006E00826080936E001CC0113009F059C086
:100A700080918100887F8160809381008FE79EE371
:100A80009093890080938800C0921F01D09220012A
:100A9000E0922101F092220180916F0082608093A8
:100AA0006F0083E00E94CC000E94A7004B015C0114
:100AB00088EE482E83E0582E612C712C0E94A700EE
:100AC000681979098A099B09683E73408105910577
:100AD000A8F391E0491A510861087108E8EE8E0EFA
:100AE000E3E09E1EA11CB11C411451046104710479
:100AF00029F7219709F01ACF8091290190912A01B5
:100B0000909328018093270180E090E0892B09F4DD
:100B1000B2CE0E94AC01882309F4ADCE0E94000041
:100B2000AACE123021F01111BCCF8FE78FCF8FE703
:100B30008093B300C0921B01D0921C01E0921D0172
:100B4000F0921E0180917000826080937000A9CFA6
:100B5000E4E3F1E01382128288EE93E0A0E0B0E0DB
:100B600084839583A683B78385E091E09183808316
:100B700085EC90E09587848784EC90E09787868762
:100B800080EC90E0918B808B81EC90E0938B828B5A
:100B900082EC90E0958B848B86EC90E0978B868B33
:100BA000118E128E138E148E0895A1E21A2EAA1B96
:100BB000BB1BFD010DC0AA1FBB1FEE1FFF1FA2170D
:100BC000B307E407F50720F0A21BB30BE40BF50B0A
:100BD000661F771F881F991F1A9469F76095709593
:100BE000809590959B01AC01BD01CF010895EE0F5A
:0E0BF000FF1F0590F491E02D0994F894FFCFBB
:100BFE00FF00000000E20142016F012F02A0017E02
:060C0E000192010D0A0035
:00000001FF
