:020000040000FA
:100000000C945E000C9486000C9486000C94860080
:100010000C9486000C9486000C9486000C94CE02FE
:100020000C9486000C9486000C9486000C94860038
:100030000C9486000C9486000C9486000C94860028
:100040000C9484020C9486000C9450030C942A03A4
:100050000C9486000C9486000C9486000C94860008
:100060000C9486000C948600020000000800020137
:100070000000030407000000000000000000000072
:1000800000250028002B0000000000240027002A83
:100090000004040404040404040202020202020331
:1000A000030303030301020408102040800102043B
:1000B00008102001020408102000720511241FBE40
:1000C000CFEFD8E0DEBFCDBF11E0A0E0B1E0EEE4BD
:1000D000FBE002C005900D92A431B107D9F721E0F1
:1000E000A4E1B1E001C01D92AB3CB207E1F710E022
:1000F000CEE5D0E004C02197FE010E949F05CD35DA
:10010000D107C9F70E9482030C94A5050C94000046
:1001100090E0FC01EB55FF4F24918F569F4FFC015F
:100120008491882399F090E0880F991FFC01E9578A
:10013000FF4FA591B491FC01E358FF4F8591949135
:100140008FB7F894EC91E22BEC938FBF089590E079
:10015000FC01E759FF4F2491FC01EB55FF4F34910F
:10016000FC01EF56FF4FE491EE23C9F0222339F052
:10017000233001F1A8F4213019F1223029F1F0E007
:10018000EE0FFF1FE358FF4FA591B4918FB7F8947E
:10019000EC91611126C030953E233C938FBF0895AA
:1001A0002730A9F02830C9F0243049F78091800029
:1001B0008F7D03C0809180008F7780938000DFCF98
:1001C00084B58F7784BDDBCF84B58F7DFBCF8091E5
:1001D000B0008F778093B000D2CF8091B0008F7D38
:1001E000F9CF3E2BDACF3FB7F8948091C7019091B9
:1001F000C801A091C901B091CA0126B5A89B05C04C
:100200002F3F19F00196A11DB11D3FBFBA2FA92F95
:10021000982F8827BC01CD01620F711D811D911D92
:1002200042E0660F771F881F991F4A95D1F70895FE
:100230008F929F92AF92BF92CF92DF92EF92FF92F6
:100240006B017C010E94F3004B015C01C114D104DD
:10025000E104F104B9F00E94F300681979098A09F0
:100260009B09683E73408105910580F321E0C21A25
:10027000D108E108F10888EE880E83E0981EA11CE1
:10028000B11CE4CFFF90EF90DF90CF90BF90AF9084
:100290009F908F9008959091000189130BC0E8E61C
:1002A000F0E0E4919FEF90930001E13049F028F0F5
:1002B000E23061F060E00C94A70010926E00FACF7B
:1002C00090916F009D7F90936F00F4CF909170009C
:1002D0009D7F9093700091E09093B0009091B10059
:1002E000987F94609093B1001092B300E3CFAF92E7
:1002F000BF92CF92DF92EF92FF920F931F93CF9313
:10030000DF936C017B018B01040F151FEB015E0174
:10031000AE18BF08C017D10759F06991D601ED9109
:10032000FC910190F081E02DC6010995892B79F7A8
:10033000C501DF91CF911F910F91FF90EF90DF905A
:10034000CF90BF90AF900895FC01538D448D252F21
:1003500030E0842F90E0821B930B541710F0CF965F
:10036000089501970895FC01918D828D981761F091
:10037000A28DAE0FBF2FB11D5D968C91928D9F5FA8
:100380009F73928F90E008958FEF9FEF0895FC0187
:10039000918D828D981731F0828DE80FF11D858D3A
:1003A00090E008958FEF9FEF0895FC01918D228DCD
:1003B000892F90E0805C9F4F821B91098F73992752
:1003C000089585E291E00E94D50121E0892B09F48E
:1003D00020E0822F089580E090E0892B29F00E9490
:1003E000E10181110C9400000895FC01A48DA80F77
:1003F000B92FB11DA35ABF4F2C91848D90E0019667
:100400008F739927848FA689B7892C93A089B18986
:100410008C91837080648C93938D848D981306C027
:100420000288F389E02D80818F7D80830895EF928B
:10043000FF920F931F93CF93DF93EC0181E0888F9E
:100440009B8D8C8D98131AC0E889F989808185FF6E
:1004500015C09FB7F894EE89FF896083E889F98910
:1004600080818370806480839FBF81E090E0DF9112
:10047000CF911F910F91FF90EF900895F62E0B8D65
:1004800010E00F5F1F4F0F731127E02E8C8D8E1120
:100490000CC00FB607FCFACFE889F989808185FF87
:1004A000F5CFCE010E94F501F1CFEB8DEC0FFD2FC2
:1004B000F11DE35AFF4FF0829FB7F8940B8FEA8942
:1004C000FB8980818062CFCFCF93DF93EC01888D51
:1004D0008823B9F0AA89BB89E889F9898C9185FDBF
:1004E00003C0808186FD0DC00FB607FCF7CF8C914D
:1004F00085FFF2CF808185FFEDCFCE010E94F5010F
:10050000E9CFDF91CF9108951F920F920FB60F920E
:1005100011242F933F938F939F93AF93BF93809119
:10052000C3019091C401A091C501B091C601309161
:10053000C20123E0230F2D3758F50196A11DB11DEF
:100540002093C2018093C3019093C401A093C5017D
:10055000B093C6018091C7019091C801A091C901D3
:10056000B091CA010196A11DB11D8093C70190935E
:10057000C801A093C901B093CA01BF91AF919F91E7
:100580008F913F912F910F900FBE0F901F90189554
:1005900026E8230F0296A11DB11DD2CF1F920F9204
:1005A0000FB60F9211242F933F934F935F936F9346
:1005B0007F938F939F93AF93BF93EF93FF9380911C
:1005C000190190911A01A0911B01B0911C01892B76
:1005D0008A2B8B2BD1F190911401E0911501F091B0
:1005E00016018081892780838091190190911A01D9
:1005F000A0911B01B0911C01181619061A061B06C2
:100600009CF48091190190911A01A0911B01B09165
:100610001C010197A109B1098093190190931A0156
:10062000A0931B01B0931C01FF91EF91BF91AF917B
:100630009F918F917F916F915F914F913F912F91FA
:100640000F900FBE0F901F901895809100010E948F
:100650004B01EACF1F920F920FB60F9211242F93E6
:100660003F934F935F936F937F938F939F93AF933A
:10067000BF93EF93FF9385E291E00E94F501FF9114
:10068000EF91BF91AF919F918F917F916F915F910A
:100690004F913F912F910F900FBE0F901F90189583
:1006A0001F920F920FB60F9211242F938F939F9347
:1006B000EF93FF93E0913501F09136018081E09155
:1006C0003B01F0913C0182FD1BC0908180913E0175
:1006D0008F5F8F7320913F01821741F0E0913E01BF
:1006E000F0E0EB5DFE4F958F80933E01FF91EF911F
:1006F0009F918F912F910F900FBE0F901F90189583
:100700008081F4CF789484B5826084BD84B58160A3
:1007100084BD85B5826085BD85B5816085BD8091CC
:100720006E00816080936E00109281008091810044
:10073000826080938100809181008160809381003C
:10074000809180008160809380008091B1008460FE
:100750008093B1008091B00081608093B00080915F
:100760007A00846080937A0080917A00826080931E
:100770007A0080917A00816080937A0080917A007B
:10078000806880937A001092C10083E00E94880004
:1007900086E00E94880085E00E94880084E00E9434
:1007A0008800E0913501F091360182E08083E0918C
:1007B0003101F09132011082E0913301F091340166
:1007C00080E1808310923D01E0913901F0913A017E
:1007D00086E08083E0913701F0913801808180616B
:1007E0008083E0913701F0913801808188608083B7
:1007F000E0913701F0913801808180688083E09139
:100800003701F091380180818F7D808361E086E03F
:100810000E94A70061E085E00E94A70061E084E0FB
:100820000E94A70060ED77E080E090E00E94180150
:1008300060E086E00E94A70085E00E94880060E0FA
:1008400085E00E94A70060E084E00E94A70068ECB9
:1008500070E080E090E00E94180142E0E42EF12C6C
:1008600088248A94982C54016FE7662E6EE3762EC6
:1008700078E6C72E70E0D72EE4E94E2EE0E05E2E3B
:1008800008EA10E0809100018330C9F4F601C491B8
:10089000C7FDB0C083E00E948800CC2309F47CC06F
:1008A000C23009F08DC08091B100887F8460809350
:1008B000B10089EF07C1EE24E394F12CE3CF8F3F21
:1008C00009F098C083E080930001F601C491CF3F06
:1008D00009F490C0C13011F148F0C23009F43BC0B6
:1008E000C7FD88C083E00E948800DACF14BC15BC25
:1008F00084B5826084BD85B5816085BDF201849137
:10090000E82FF0E0EE0FFF1FE358FF4F8591949121
:10091000F801849180931801C0E0BCCF1092800050
:100920001092810080918100886080938100809185
:100930008100816080938100F2018491E82FF0E0D2
:10094000EE0FFF1FE358FF4F85919491F8018491BA
:10095000809317019FCF1092B0001092B100809148
:10096000B00082608093B0008091B100816080937C
:10097000B100F2018491E82FF0E0EE0FFF1FE35881
:10098000FF4F859194919093160180931501F80182
:100990008491809314017ECF85B5887F836085BD67
:1009A00089EF87BD8092210190922201A0922301BC
:1009B000B092240180916E00826080936E001AC014
:1009C000C13009F078C080918100887F8160809378
:1009D0008100709289006092880080921D0190923F
:1009E0001E01A0921F01B092200180916F008260D1
:1009F00080936F0060ED77E080E090E00E94180146
:100A000083E00E944B0160ED77E080E090E00E947F
:100A10001801EA94EF2809F04ECF8FB7F89440916F
:100A2000C3015091C4016091C5017091C6018FBF8F
:100A3000C0E0D0E060E086E00E94A70061E085E0D1
:100A40000E94A70060E084E00E94A70064E670E0D6
:100A500080E090E00E94180161E089E00E94A70018
:100A600060ED77E080E090E00E94180160E086E0B1
:100A70000E94A70060E085E00E94A70061E084E09A
:100A80000E94A70064E670E080E090E00E941801F8
:100A900060E089E00E94A70060E777E180E090E0F5
:100AA0000E941801209731F20E94E101882311F27F
:100AB0000E940000BFCFC23021F0C1119BCF8FE751
:100AC00070CF8FE78093B3008092190190921A0142
:100AD000A0921B01B0921C018091700082608093F3
:100AE000700088CFE5E2F1E01382128288EE93E095
:100AF000A0E0B0E084839583A683B78385E091E08E
:100B00009183808385EC90E09587848784EC90E0E6
:100B10009787868780EC90E0918B808B81EC90E0CA
:100B2000938B828B82EC90E0958B848B86EC90E0AB
:100B3000978B868B118E128E138E148E0895EE0F66
:100B4000FF1F0590F491E02D0994F894FFCFFF006A
:100B500000000017027701A4016402D501B301C7A8
:020B6000010092
:107E0000112484B714BE81FFF0D085E080938100F7
:107E100082E08093C00088E18093C10086E0809377
:107E2000C20080E18093C4008EE0C9D0259A86E02C
:107E300020E33CEF91E0309385002093840096BBD3
:107E4000B09BFECF1D9AA8958150A9F7CC24DD24C4
:107E500088248394B5E0AB2EA1E19A2EF3E0BF2EE7
:107E6000A2D0813461F49FD0082FAFD0023811F036
:107E7000013811F484E001C083E08DD089C08234E0
:107E800011F484E103C0853419F485E0A6D080C0E4
:107E9000853579F488D0E82EFF2485D0082F10E0AE
:107EA000102F00270E291F29000F111F8ED06801E7
:107EB0006FC0863521F484E090D080E0DECF843638
:107EC00009F040C070D06FD0082F6DD080E0C81688
:107ED00080E7D80618F4F601B7BEE895C0E0D1E017
:107EE00062D089930C17E1F7F0E0CF16F0E7DF06D8
:107EF00018F0F601B7BEE89568D007B600FCFDCFD4
:107F0000A601A0E0B1E02C9130E011968C91119780
:107F100090E0982F8827822B932B1296FA010C0160
:107F200087BEE89511244E5F5F4FF1E0A038BF0790
:107F300051F7F601A7BEE89507B600FCFDCF97BE46
:107F4000E89526C08437B1F42ED02DD0F82E2BD052
:107F50003CD0F601EF2C8F010F5F1F4F84911BD097
:107F6000EA94F801C1F70894C11CD11CFA94CF0C13
:107F7000D11C0EC0853739F428D08EE10CD085E9AC
:107F80000AD08FE07ACF813511F488E018D01DD067
:107F900080E101D065CF982F8091C00085FFFCCF94
:107FA0009093C60008958091C00087FFFCCF809118
:107FB000C00084FD01C0A8958091C6000895E0E648
:107FC000F0E098E1908380830895EDDF803219F02E
:107FD00088E0F5DFFFCF84E1DECF1F93182FE3DFCA
:107FE0001150E9F7F2DF1F91089580E0E8DFEE27F6
:047FF000FF270994CA
:027FFE00040479
:00000001FF
