:020000040000FA
:100000000C9473000C949B000C949B000C949B002C
:100010000C949B000C949B000C949B000C94CB03C1
:100020000C949B000C949B000C949B000C949B00E4
:100030000C949B000C949B000C949B000C949B00D4
:100040000C9481030C949B000C944D040C94270495
:100050000C949B000C949B000C949B000C949B00B4
:100060000C949B000C949B00005EBCE2613FDD831E
:10007000C29C7E20A3FD1F41009D23BE46DB65F888
:100080008C11AF32CA57E974020000000024002727
:10009000002A0000000000250028002B00000000BE
:1000A0000800020100000304070000000000000037
:1000B00000000000002300260029000404040404BA
:1000C0000404040202020202020303030303030105
:1000D00002040810204080010204081020010204DC
:1000E000081020007F0411241FBECFEFD8E0DEBF30
:1000F000CDBF11E0A0E0B1E0EAE4F3E102C0059079
:100100000D92AA31B107D9F721E0AAE1B1E001C00F
:100110001D92A83FB207E1F710E0C3E7D0E004C0AA
:100120002197FE010E949D09C237D107C9F70E949D
:10013000F5040C94A3090C94000090E0FC01E35634
:10014000FF4F2491FC01E153FF4F3491FC01E55432
:10015000FF4FE491EE23C9F0222339F0233001F15F
:10016000A8F4213019F1223029F1F0E0EE0FFF1F41
:10017000ED56FF4FA591B4918FB7F894EC916111B2
:1001800026C030953E233C938FBF08952730A9F0B9
:100190002830C9F0243049F7809180008F7D03C05A
:1001A000809180008F7780938000DFCF84B58F7738
:1001B00084BDDBCF84B58F7DFBCF8091B0008F777E
:1001C0008093B000D2CF8091B0008F7DF9CF3E2BCD
:1001D000DACFCF93DF9390E0FC01E153FF4F2491FE
:1001E00085549F4FFC0184918823D1F090E0880FC3
:1001F000991FFC01E757FF4FA591B491FC01ED5603
:10020000FF4FC591D49161110EC09FB7F8948C91A6
:10021000E22FE0958E238C932881E223E8839FBF11
:10022000DF91CF9108958FB7F894EC91E22BEC9386
:100230008FBFF6CF3FB7F894809132019091330190
:10024000A0913401B091350126B5A89B05C02F3F80
:1002500019F00196A11DB11D3FBFBA2FA92F982FEC
:100260008827BC01CD01620F711D811D911D42E0E7
:10027000660F771F881F991F4A95D1F708958F92AF
:100280009F92AF92BF92CF92DF92EF92FF926B015B
:100290007C010E941A014B015C01C114D104E104EC
:1002A000F104B9F00E941A01681979098A099B09B9
:1002B000683E73408105910580F321E0C21AD108A0
:1002C000E108F10888EE880E83E0981EA11CB11C9D
:1002D000E4CFFF90EF90DF90CF90BF90AF909F90D2
:1002E0008F9008959091000189130BC0E8E8F0E029
:1002F000E4919FEF90930001E13049F028F0E23063
:1003000061F060E00C949D0010926E00FACF909125
:100310006F009D7F90936F00F4CF909170009D7F50
:100320009093700091E09093B0009091B100987F0D
:1003300094609093B1001092B300E3CFAF92BF925C
:10034000CF92DF92EF92FF920F931F93CF93DF93A1
:100350006C017B018B01040F151FEB015E01AE18D0
:10036000BF08C017D10759F06991D601ED91FC91F2
:100370000190F081E02DC6010995892B79F7C5011F
:10038000DF91CF911F910F91FF90EF90DF90CF9071
:10039000BF90AF900895FC01538D448D252F30E020
:1003A000842F90E0821B930B541710F0CF96089582
:1003B00001970895FC01918D828D981761F0A28DAF
:1003C000AE0FBF2FB11D5D968C91928D9F5F9F7375
:1003D000928F90E008958FEF9FEF0895FC01918D2B
:1003E000828D981731F0828DE80FF11D858D90E098
:1003F00008958FEF9FEF0895FC01918D228D892F35
:1004000090E0805C9F4F821B91098F73992708951C
:1004100086E391E00E94FC0121E0892B09F420E0B1
:10042000822F089580E090E0892B29F00E94080235
:1004300081110C9400000895FC01A48DA80FB92F20
:10044000B11DA35ABF4F2C91848D90E001968F73FC
:100450009927848FA689B7892C93A089B1898C911B
:10046000837080648C93938D848D981306C002886A
:10047000F389E02D80818F7D80830895EF92FF9234
:100480000F931F93CF93DF93EC0181E0888F9B8DB7
:100490008C8D98131AC0E889F989808185FF15C071
:1004A0009FB7F894EE89FF896083E889F989808194
:1004B0008370806480839FBF81E090E0DF91CF9163
:1004C0001F910F91FF90EF900895F62E0B8D10E085
:1004D0000F5F1F4F0F731127E02E8C8D8E110CC0F4
:1004E0000FB607FCFACFE889F989808185FFF5CF3F
:1004F000CE010E941C02F1CFEB8DEC0FFD2FF11D00
:10050000E35AFF4FF0829FB7F8940B8FEA89FB897B
:1005100080818062CFCFCF93DF93EC01888D8823D9
:10052000B9F0AA89BB89E889F9898C9185FD03C056
:10053000808186FD0DC00FB607FCF7CF8C9185FF3B
:10054000F2CF808185FFEDCFCE010E941C02E9CF62
:10055000DF91CF910895DC0180E0615090F09D9192
:100560009827E92FEF70F0E0E859FF4F2491E92F29
:10057000E295EF70F0E0E858FF4FE491822F8E276C
:10058000ECCF0895DC012C911196ED91FC91F8943B
:100590008181822B81839281322F309593239283A4
:1005A00087E090E00197F1F781818323818383E2E3
:1005B00090E00197F1F790817894EFECF0E03197BB
:1005C000F1F7922381E009F480E00895FC01908125
:1005D0000180F281E02D292F209560FF14C0F8944E
:1005E0008281822382838181892B8183A3E2B0E08F
:1005F0001197F1F78281982B9283789487ED90E0A0
:100600000197F1F70895F894828182238283818192
:10061000892B8183AFEFB0E01197F1F78281982B9E
:10062000928378948FE090E0EBCFDF92EF92FF928D
:100630000F931F93CF93DF93EC01D62EE42E08E0A7
:1006400010E0FF24F39461E08D2D8F2109F460E028
:10065000CE010E94E602FF0C01501109A1F7E11042
:1006600010C0F894E981FA8191818881809589236D
:100670008183E981FA8192818881809589238283AF
:100680007894DF91CF911F910F91FF90EF90DF90C1
:100690000895FC0190810180F281E02DF894818120
:1006A000292F20958223818378943DE743E050E011
:1006B000315029F1DA011197F1F780818923C1F3D3
:1006C000F8948281822382838181892B818378942B
:1006D000ABE7B7E01197F1F7F8948181822381832A
:1006E000A3E1B1E01197F1F78081982381E009F04F
:1006F00080E07894E3E6F6E03197F1F7089580E042
:1007000008951F920F920FB60F9211242F933F93CB
:100710008F939F93AF93BF9380912E0190912F0160
:10072000A0913001B091310130912D0123E0230FD0
:100730002D3758F50196A11DB11D20932D018093F1
:100740002E0190932F01A0933001B093310180913D
:10075000320190913301A0913401B091350101969D
:10076000A11DB11D8093320190933301A0933401F8
:10077000B0933501BF91AF919F918F913F912F9190
:100780000F900FBE0F901F90189526E8230F02962A
:10079000A11DB11DD2CF1F920F920FB60F9211243F
:1007A0002F933F934F935F936F937F938F939F9379
:1007B000AF93BF93EF93FF9380911F01909120011E
:1007C000A0912101B0912201892B8A2B8B2BD1F191
:1007D00090911A01E0911B01F0911C018081892701
:1007E000808380911F0190912001A0912101B091FF
:1007F0002201181619061A061B069CF480911F0187
:1008000090912001A0912101B09122010197A109AD
:10081000B10980931F0190932001A0932101B0930F
:100820002201FF91EF91BF91AF919F918F917F91A5
:100830006F915F914F913F912F910F900FBE0F904D
:100840001F901895809100010E947201EACF1F92BB
:100850000F920FB60F9211242F933F934F935F93F4
:100860006F937F938F939F93AF93BF93EF93FF9378
:1008700086E391E00E941C02FF91EF91BF91AF913E
:100880009F918F917F916F915F914F913F912F91A8
:100890000F900FBE0F901F9018951F920F920FB6DA
:1008A0000F9211242F938F939F93EF93FF93E091D7
:1008B0004601F09147018081E0914C01F0914D019A
:1008C00082FD1BC0908180914F018F5F8F732091BB
:1008D0005001821741F0E0914F01F0E0EA5CFE4FD9
:1008E000958F80934F01FF91EF919F918F912F9161
:1008F0000F900FBE0F901F9018958081F4CFE6E304
:10090000F1E01382128288EE93E0A0E0B0E08483ED
:100910009583A683B7838BE091E09183808385ECF8
:1009200090E09587848784EC90E09787868780ECB9
:1009300090E0918B808B81EC90E0938B828B82ECAA
:1009400090E0958B848B86EC90E0978B868B118E54
:10095000128E138E148E60E08AE00E94E900E9EDA9
:10096000F0E0E491AAEEB1E0EC93E5ECF0E0E49184
:10097000F0E0EE0FFF1FEF54FF4F85919491129618
:100980009C938E9311971B961C921B971D961C92FD
:100990001D971C961C921C971A961C921A971996D2
:1009A0001C92199718961C92189717961C921797D5
:1009B00016961C92169715961C92159714961C92D3
:1009C000149713961C921397E3EDF1E0168A158A9B
:1009D0001182B287A18717821086108289E08383F3
:1009E00081E08483858386830895CF93DF93CDB799
:1009F000DEB767970FB6F894DEBF0FBECDBF789411
:100A000084B5826084BD84B5816084BD85B5826013
:100A100085BD85B5816085BD80916E0081608093C4
:100A20006E0010928100809181008260809381002D
:100A3000809181008160809381008091800081603D
:100A4000809380008091B10084608093B100809198
:100A5000B00081608093B00080917A0084608093C0
:100A60007A0080917A00826080937A0080917A0087
:100A7000816080937A0080917A00806880937A0008
:100A80001092C10061E083E00E94E900E09146011C
:100A9000F091470182E08083E0914201F0914301AF
:100AA0001082E0914401F091450180E18083109231
:100AB0004E01E0914A01F0914B0186E08083E09184
:100AC0004801F0914901808180618083E091480173
:100AD000F0914901808188608083E0914801F09124
:100AE0004901808180688083E0914801F09149014B
:100AF00080818F7D80838091DC019091DD010E9457
:100B0000490340E06CEC8091DC019091DD010E9492
:100B100015034091D30164E48091DC019091DD01E3
:100B20000E9415038091D701882391F1E091D601AD
:100B30008091D801882309F46BC08091D301811181
:100B400067C08FB7F894C0902E01D0902F01E0902D
:100B50003001F09031018FBF8091DC019091DD0177
:100B60000E94C2028130A1F02FB7F89480912E012B
:100B700090912F01A0913001B09131012FBF8C19BC
:100B80009D09AE09BF098E3E9240A105B10520F333
:100B9000BEEB4B2EB0E05B2E18EE812E13E0912EB3
:100BA000A12CB12CA2ED6A2EA0E07A2E80912B010F
:100BB00090912C018934944F04F5E091DC01F0917F
:100BC000DD0113861586148612861186108617821B
:100BD0001682158214821382E090DC01F090DD0110
:100BE000D7011D968C918823D9F1F70113861586BC
:100BF000148610922C0110922B0180E090E0892B3A
:100C0000A9F20E940802882389F20E940000CACF3C
:100C1000E9508EEE92E0E33038F4F0E0EE0FFF1F83
:100C2000EF5FFE4F808191816C01990FEE08FF0804
:100C30008091D401882329F060E08091D5010E9441
:100C40009D00C701B6010E943F018091D401882315
:100C500009F49ECF61E08091D5010E949D0098CF5C
:100C6000C7010E94490381110AC0D7011B961C923B
:100C70001B971D961C921D971C961C92BACF40E0A4
:100C800060EFC7010E94150301E0C12C312C11E077
:100C9000C7010E94C202D82EC7010E94C202B1E061
:100CA000DB1288C0813009F0A6C0113408F49DCF52
:100CB000F7013386311002C081E08587D701139692
:100CC0008C91882309F491CFF70133968E01065F4A
:100CD0001F4FBBE0EB0EF11CD8011B8B0A8B8191DF
:100CE0008D93EE16FF06D9F767E0C8010E94AB02AC
:100CF000998989137ECF8091DC019091DD010E945A
:100D00004903882309F475CFE090DC01F090DD0100
:100D100040E065E5C7010E9415036801E8E0CE0EDA
:100D2000D11CD8016D918D0140E0C7010E941503CF
:100D30000C151D05B1F740E06EEB8091DC01909140
:100D4000DD010E9415038E010F5F1F4F78010E8B8E
:100D50001F8BE091DC01F091DD01FD8BEC8BF8E065
:100D6000CF2ED12C312C222423948C899D890E9452
:100D7000C20281113228220CF1E0CF1AD108A9F762
:100D8000D7013D927D01EA89FB89EA17FB0709F744
:100D90008091DC019091DD010E944903813009F0CE
:100DA00028CFD8018D918D01811104C1EA16FB066F
:100DB000C1F71FCFEC2DF0E0D81213C0D7011B965E
:100DC0008C911B971817A8F4AE0FBF1F13968C9128
:100DD000802389F4D12C193018F4D7011C961C9368
:100DE000312EEE0DFF1D8381902F909589238383F3
:100DF0000AC08113EFCFF701EC0DF11D8381802B29
:100E00008383DD24D3946D2DC7010E94E6021F5F0A
:100E1000000F11F4C39401E0B7E0BC1508F038CF1F
:100E200044CF8F3F09F0A0C083E080930001E8E841
:100E3000F0E0F490FFEFFF1609F496C021E0F216FF
:100E400029F1F21658F042E0F41609F43CC0F7FC20
:100E50008BC061E083E00E94E90018C114BC15BC9E
:100E600084B5826084BD85B5816085BDF2018491C1
:100E7000E82FF0E0EE0FFF1FED56FF4F85919491A4
:100E8000F301849180931E01F12CF9C0109280002F
:100E90001092810080918100886080938100809110
:100EA0008100816080938100F2018491E82FF0E05D
:100EB000EE0FFF1FED56FF4F85919491F301849142
:100EC00080931D01DCC01092B0001092B10080919F
:100ED000B00082608093B0008091B1008160809307
:100EE000B100F2018491E82FF0E0EE0FFF1FED5604
:100EF000FF4F8591949190931C0180931B01F30106
:100F0000849180931A01BBC085B5887F836085BDBD
:100F100089EF87BD8092270190922801A092290134
:100F2000B0922A0180916E00826080936E001CC096
:100F300021E0F21227C080918100887F8160809338
:100F400081004FE75EE350938900409388008092D0
:100F5000230190922401A0922501B0922601809154
:100F60006F00826080936F0083E00E94720168EEE0
:100F700073E080E090E00E943F010150110909F008
:100F800074C037CE52E0F51621F0F110EDCF8FE7A7
:100F9000C0CF8FE78093B30080921F019092200111
:100FA000A0922101B0922201809170008260809312
:100FB0007000DACF68E08E899F890E94AB02998524
:100FC000891317CE6A8170E0762F6627770F770F27
:100FD000770F2981B8E02B9F90011124262B372B06
:100FE0008A858031E1F468856623C9F070E08F81DD
:100FF000FB01E81BF109CF019695982F882797955B
:1010000087950E947509CB018097B90153E0660F5F
:10101000771F5A95E1F760789C01260F371F21381A
:10102000F4EE3F070CF4E5CDB901330F880B990BB3
:101030000E94530820E030E040E05CE30E94930807
:1010400020E030E048EE51E40E948E0818160CF0C3
:10105000D0CD60E088E00E949D0060ED77E080E008
:1010600090E00E943F0103E010E080910001833096
:1010700009F0D7CEE8E8F0E0F490F7FC75CF61E036
:1010800083E00E94E900FF2009F43ECFF2E0FF1266
:101090004FCF8091B100887F84608093B10089EF49
:1010A00079CFE89409C097FB3EF4909580957095B0
:1010B00061957F4F8F4F9F4F9923A9F0F92F96E9A4
:1010C000BB279395F695879577956795B795F11119
:1010D000F8CFFAF4BB0F11F460FF1BC06F5F7F4FB6
:1010E0008F4F9F4F16C0882311F096E911C07723C8
:1010F00021F09EE8872F762F05C0662371F096E8D1
:10110000862F70E060E02AF09A95660F771F881F9F
:10111000DAF7880F9695879597F908950E94000948
:1011200008F48FEF08950E94A6080C943B090E94D2
:101130002D0938F00E94340920F0952311F00C9409
:1011400024090C942A0911240C946F090E944C095B
:1011500070F3959FC1F3950F50E0551F629FF0010A
:10116000729FBB27F00DB11D639FAA27F00DB11D23
:10117000AA1F649F6627B00DA11D661F829F2227AC
:10118000B00DA11D621F739FB00DA11D621F839F33
:10119000A00D611D221F749F3327A00D611D231F09
:1011A000849F600D211D822F762F6A2F11249F5757
:1011B00050409AF0F1F088234AF0EE0FFF1FBB1F5A
:1011C000661F771F881F91505040A9F79E3F510519
:1011D00080F00C9424090C946F095F3FE4F3983E6F
:1011E000D4F3869577956795B795F795E7959F5FC3
:1011F000C1F7FE2B880F911D9695879597F9089555
:10120000990F0008550FAA0BE0E8FEEF1616170617
:10121000E807F907C0F012161306E407F50798F07F
:10122000621B730B840B950B39F40A2661F0232B98
:10123000242B252B21F408950A2609F4A140A69514
:101240008FEF811D811D089597F99F6780E870E0F9
:1012500060E008959FEF80EC089500240A9416162C
:10126000170618060906089500240A941216130694
:10127000140605060895092E0394000C11F4882322
:1012800052F0BB0F40F4BF2B11F460FF04C06F5F3E
:101290007F4F8F4F9F4F089557FD9058440F551F14
:1012A00059F05F3F71F04795880F97FB991F61F0E8
:1012B0009F3F79F087950895121613061406551F5F
:1012C000F2CF4695F1DF08C0161617061806991FCB
:1012D000F1CF86957105610508940895E894BB27C0
:1012E00066277727CB0197F9089597FB072E16F409
:1012F000009407D077FD09D00E94890907FC05D02A
:101300003EF4909581959F4F0895709561957F4F1C
:101310000895AA1BBB1B51E107C0AA1FBB1FA6173C
:10132000B70710F0A61BB70B881F991F5A95A9F78E
:1013300080959095BC01CD010895EE0FFF1F05909B
:10134000F491E02D0994F894FFCFFF5E00BC007784
:1013500001000000003E029E01CB018B02FC01DA7D
:0413600001EE010099
:107E0000112484B714BE81FFF0D085E080938100F7
:107E100082E08093C00088E18093C10086E0809377
:107E2000C20080E18093C4008EE0C9D0259A86E02C
:107E300020E33CEF91E0309385002093840096BBD3
:107E4000B09BFECF1D9AA8958150A9F7CC24DD24C4
:107E500088248394B5E0AB2EA1E19A2EF3E0BF2EE7
:107E6000A2D0813461F49FD0082FAFD0023811F036
:107E7000013811F484E001C083E08DD089C08234E0
:107E800011F484E103C0853419F485E0A6D080C0E4
:107E9000853579F488D0E82EFF2485D0082F10E0AE
:107EA000102F00270E291F29000F111F8ED06801E7
:107EB0006FC0863521F484E090D080E0DECF843638
:107EC00009F040C070D06FD0082F6DD080E0C81688
:107ED00080E7D80618F4F601B7BEE895C0E0D1E017
:107EE00062D089930C17E1F7F0E0CF16F0E7DF06D8
:107EF00018F0F601B7BEE89568D007B600FCFDCFD4
:107F0000A601A0E0B1E02C9130E011968C91119780
:107F100090E0982F8827822B932B1296FA010C0160
:107F200087BEE89511244E5F5F4FF1E0A038BF0790
:107F300051F7F601A7BEE89507B600FCFDCF97BE46
:107F4000E89526C08437B1F42ED02DD0F82E2BD052
:107F50003CD0F601EF2C8F010F5F1F4F84911BD097
:107F6000EA94F801C1F70894C11CD11CFA94CF0C13
:107F7000D11C0EC0853739F428D08EE10CD085E9AC
:107F80000AD08FE07ACF813511F488E018D01DD067
:107F900080E101D065CF982F8091C00085FFFCCF94
:107FA0009093C60008958091C00087FFFCCF809118
:107FB000C00084FD01C0A8958091C6000895E0E648
:107FC000F0E098E1908380830895EDDF803219F02E
:107FD00088E0F5DFFFCF84E1DECF1F93182FE3DFCA
:107FE0001150E9F7F2DF1F91089580E0E8DFEE27F6
:047FF000FF270994CA
:027FFE00040479
:00000001FF
