:020000040000FA
:100000000C945E000C9486000C9486000C94860080
:100010000C9486000C9486000C9486000C94B50316
:100020000C9486000C9486000C9486000C94860038
:100030000C9486000C9486000C9486000C94860028
:100040000C946B030C9486000C9437040C941104EC
:100050000C9486000C9486000C9486000C94860008
:100060000C9486000C948600000000080002010039
:100070000003040700000000000000000200000070
:1000800000250028002B0000000000240027002A83
:100090000004040404040404040202020202020331
:1000A000030303030301020408102040800102043B
:1000B000081020010204081020006E0511241FBE44
:1000C000CFEFD8E0DEBFCDBF11E0A0E0B1E0E6E4C5
:1000D000FBE002C005900D92A431B107D9F721E0F1
:1000E000A4E1B1E001C01D92AD3CB207E1F710E020
:1000F000CEE5D0E004C02197FE010E949B05CD35DE
:10010000D107C9F70E9469040C94A1050C94000062
:1001100090E0FC01EB55FF4F24918F569F4FFC015F
:100120008491882399F090E0880F991FFC01E9578A
:10013000FF4FA591B491FC01E358FF4F8591949135
:100140008FB7F894EC91E22BEC938FBF0895CF9387
:1001500090910001891721F09F3FB9F0CF91089548
:10016000ECE7F0E0C491C7FDF9CF0E948800CC23F2
:1001700009F482C0C23009F097C08091B100887F35
:1001800084608093B10089EFB6C080930001ECE7F2
:10019000F0E0C491CF3F11F3C13031F140F0C230F3
:1001A00009F444C0C7FDDACF0E948800E3CF14BC35
:1001B00015BC94B5926094BD95B5916095BD282FFE
:1001C00030E0F901EF56FF4FE491F0E0EE0FFF1F32
:1001D000E358FF4F45915491F901EB55FF4FE491DE
:1001E000E093C001C0E0C1CF109280001092810066
:1001F000909181009860909381009091810091602E
:1002000090938100282F30E0F901EF56FF4FE491E1
:10021000F0E0EE0FFF1FE358FF4F45915491F901B5
:10022000EB55FF4FE491E093BF019FCF1092B000D8
:100230001092B1009091B00092609093B0009091B4
:10024000B10091609093B100282F30E0F901EF5692
:10025000FF4FE491F0E0EE0FFF1FE358FF4F459191
:1002600054915093BE014093BD01F901EB55FF4FEE
:10027000E491E093BC0179CF85B5887F836085BD2B
:1002800089EF87BD88EE93E0A0E0B0E08093C901DC
:100290009093CA01A093CB01B093CC0180916E00E2
:1002A000826080936E005ACFC130F1F4809181005A
:1002B000887F8160809381008FE79EE3909389001F
:1002C0008093880088EE93E0A0E0B0E08093C501C1
:1002D0009093C601A093C701B093C80180916F00AD
:1002E000826080936F003ACFC23021F0C11136CFC7
:1002F0008FE7C7CF8FE78093B30088EE93E0A0E04D
:10030000B0E08093C1019093C201A093C301B09368
:10031000C401809170008260809370001FCF90E0D4
:10032000FC01E859FF4F2491FC01EB55FF4F34913C
:10033000FC01EF56FF4FE491EE23C9F0222339F080
:10034000233001F1A8F4213019F1223029F1F0E035
:10035000EE0FFF1FE358FF4FA591B4918FB7F894AC
:10036000EC91611126C030953E233C938FBF0895D8
:100370002730A9F02830C9F0243049F78091800057
:100380008F7D03C0809180008F7780938000DFCFC6
:1003900084B58F7784BDDBCF84B58F7DFBCF809113
:1003A000B0008F778093B000D2CF8091B0008F7D66
:1003B000F9CF3E2BDACF3FB7F8948091B8019091F6
:1003C000B901A091BA01B091BB0126B5A89B05C0A7
:1003D0002F3F19F00196A11DB11D3FBFBA2FA92FC4
:1003E000982F8827BC01CD01620F711D811D911DC1
:1003F00042E0660F771F881F991F4A95D1F708952D
:100400008F929F92AF92BF92CF92DF92EF92FF9224
:100410004B015C010E94DB016B017C010E94DB014E
:100420006C197D098E099F09683E7340810591050D
:10043000A8F321E0821A9108A108B10888EEC80E3D
:1004400083E0D81EE11CF11C81149104A104B104C5
:1004500029F7FF90EF90DF90CF90BF90AF909F90E3
:100460008F9008959091000189130BC0ECE7F0E0A4
:10047000E4919FEF90930001E13049F028F0E230E1
:1004800061F060E00C948F0110926E00FACF9091B1
:100490006F009D7F90936F00F4CF909170009D7FCF
:1004A0009093700091E09093B0009091B100987F8C
:1004B00094609093B1001092B300E3CFAF92BF92DB
:1004C000CF92DF92EF92FF920F931F93CF93DF9320
:1004D0006C017B018B01040F151FEB015E01AE184F
:1004E000BF08C017D10759F06991D601ED91FC9171
:1004F0000190F081E02DC6010995892B79F7C5019E
:10050000DF91CF911F910F91FF90EF90DF90CF90EF
:10051000BF90AF900895FC01538D448D252F30E09E
:10052000842F90E0821B930B541710F0CF96089500
:1005300001970895FC01918D828D981761F0A28D2D
:10054000AE0FBF2FB11D5D968C91928D9F5F9F73F3
:10055000928F90E008958FEF9FEF0895FC01918DA9
:10056000828D981731F0828DE80FF11D858D90E016
:1005700008958FEF9FEF0895FC01918D228D892FB3
:1005800090E0805C9F4F821B91098F73992708959B
:1005900084E191E00E94BC0221E0892B09F420E073
:1005A000822F089580E090E0892B29F00E94C802F4
:1005B00081110C9400000895FC01A48DA80FB92F9F
:1005C000B11DA35ABF4F2C91848D90E001968F737B
:1005D0009927848FA689B7892C93A089B1898C919A
:1005E000837080648C93938D848D981306C00288E9
:1005F000F389E02D80818F7D80830895EF92FF92B3
:100600000F931F93CF93DF93EC0181E0888F9B8D35
:100610008C8D98131AC0E889F989808185FF15C0EF
:100620009FB7F894EE89FF896083E889F989808112
:100630008370806480839FBF81E090E0DF91CF91E1
:100640001F910F91FF90EF900895F62E0B8D10E003
:100650000F5F1F4F0F731127E02E8C8D8E110CC072
:100660000FB607FCFACFE889F989808185FFF5CFBD
:10067000CE010E94DC02F1CFEB8DEC0FFD2FF11DBE
:10068000E35AFF4FF0829FB7F8940B8FEA89FB89FA
:1006900080818062CFCFCF93DF93EC01888D882358
:1006A000B9F0AA89BB89E889F9898C9185FD03C0D5
:1006B000808186FD0DC00FB607FCF7CF8C9185FFBA
:1006C000F2CF808185FFEDCFCE010E94DC02E9CF21
:1006D000DF91CF9108951F920F920FB60F921124C0
:1006E0002F933F938F939F93AF93BF938091B401C8
:1006F0009091B501A091B601B091B7013091B301CD
:1007000023E0230F2D3758F50196A11DB11D20932D
:10071000B3018093B4019093B501A093B601B09357
:10072000B7018091B8019091B901A091BA01B0913F
:10073000BB010196A11DB11D8093B8019093B90131
:10074000A093BA01B093BB01BF91AF919F918F91DC
:100750003F912F910F900FBE0F901F90189526E894
:10076000230F0296A11DB11DD2CF1F920F920FB67B
:100770000F9211242F933F934F935F936F937F9327
:100780008F939F93AF93BF93EF93FF938091C1019A
:100790009091C201A091C301B091C401892B8A2B11
:1007A0008B2BD1F19091BC01E091BD01F091BE0184
:1007B0008081892780838091C1019091C201A0919D
:1007C000C301B091C401181619061A061B069CF441
:1007D0008091C1019091C201A091C301B091C40167
:1007E0000197A109B1098093C1019093C201A0931F
:1007F000C301B093C401FF91EF91BF91AF919F915D
:100800008F917F916F915F914F913F912F910F90B9
:100810000FBE0F901F901895809100010E94320228
:10082000EACF1F920F920FB60F9211242F933F938E
:100830004F935F936F937F938F939F93AF93BF93E8
:10084000EF93FF9384E191E00E94DC02FF91EF912E
:10085000BF91AF919F918F917F916F915F914F91D8
:100860003F912F910F900FBE0F901F9018951F92E0
:100870000F920FB60F9211242F938F939F93EF93A4
:10088000FF93E0912401F09125018081E0912A01FC
:10089000F0912B0182FD1BC0908180912D018F5F13
:1008A0008F7320912E01821741F0E0912D01F0E02D
:1008B000EC5EFE4F958F80932D01FF91EF919F91FC
:1008C0008F912F910F900FBE0F901F9018958081E0
:1008D000F4CF789484B5826084BD84B5816084BD92
:1008E00085B5826085BD85B5816085BD80916E00CE
:1008F000816080936E0010928100809181008260FF
:10090000809381008091810081608093810080913B
:1009100080008160809380008091B100846080932A
:10092000B1008091B00081608093B00080917A0026
:10093000846080937A0080917A00826080937A004C
:1009400080917A00816080937A0080917A0080683B
:1009500080937A001092C10083E00E94880086E0B4
:100960000E94880085E00E94880084E00E94880040
:10097000E0912401F091250182E08083E091200143
:10098000F09121011082E0912201F091230180E198
:10099000808310922C01E0912801F091290186E0DA
:1009A0008083E0912601F09127018081806180831E
:1009B000E0912601F0912701808188608083E09199
:1009C0002601F0912701808180688083E0912601D3
:1009D000F091270180818F7D808361E086E00E9415
:1009E0008F0161E085E00E948F0161E084E00E9458
:1009F0008F0160ED77E080E090E00E9400028FB709
:100A0000F8944091B4015091B5016091B601709194
:100A1000B7018FBF00E010E060E086E00E948F0128
:100A200061E085E00E948F0160E084E00E948F0118
:100A300064E670E080E090E00E94000261E088E0FF
:100A40000E948F0160E67AEE80E090E00E94000252
:100A500060E086E00E948F0160E085E00E948F01E7
:100A600061E084E00E948F0164E670E080E090E045
:100A70000E94000260EC74ED81E090E00E940002B0
:100A80002FB7F8948091B4019091B501A091B6016F
:100A9000B091B7012FBF9093B2018093B101803420
:100AA000974784F0C3E0D0E083E00E94A70083E092
:100AB0000E94320268EE73E080E090E00E94000243
:100AC000219791F70115110509F4A6CF0E94C802DC
:100AD000882309F4A1CF0E9400009ECFE4E1F1E059
:100AE0001382128288EE93E0A0E0B0E084839583C5
:100AF000A683B78385E091E09183808385EC90E0C5
:100B00009587848784EC90E09787868780EC90E0D7
:100B1000918B808B81EC90E0938B828B82EC90E0C8
:100B2000958B848B86EC90E0978B868B118E128E42
:100B3000138E148E0895EE0FFF1F0590F491E02D93
:100B40000994F894FFCFFF00000000FE025E028BC4
:0A0B5000024B03BC029A02AE020041
:107E0000112484B714BE81FFF0D085E080938100F7
:107E100082E08093C00088E18093C10086E0809377
:107E2000C20080E18093C4008EE0C9D0259A86E02C
:107E300020E33CEF91E0309385002093840096BBD3
:107E4000B09BFECF1D9AA8958150A9F7CC24DD24C4
:107E500088248394B5E0AB2EA1E19A2EF3E0BF2EE7
:107E6000A2D0813461F49FD0082FAFD0023811F036
:107E7000013811F484E001C083E08DD089C08234E0
:107E800011F484E103C0853419F485E0A6D080C0E4
:107E9000853579F488D0E82EFF2485D0082F10E0AE
:107EA000102F00270E291F29000F111F8ED06801E7
:107EB0006FC0863521F484E090D080E0DECF843638
:107EC00009F040C070D06FD0082F6DD080E0C81688
:107ED00080E7D80618F4F601B7BEE895C0E0D1E017
:107EE00062D089930C17E1F7F0E0CF16F0E7DF06D8
:107EF00018F0F601B7BEE89568D007B600FCFDCFD4
:107F0000A601A0E0B1E02C9130E011968C91119780
:107F100090E0982F8827822B932B1296FA010C0160
:107F200087BEE89511244E5F5F4FF1E0A038BF0790
:107F300051F7F601A7BEE89507B600FCFDCF97BE46
:107F4000E89526C08437B1F42ED02DD0F82E2BD052
:107F50003CD0F601EF2C8F010F5F1F4F84911BD097
:107F6000EA94F801C1F70894C11CD11CFA94CF0C13
:107F7000D11C0EC0853739F428D08EE10CD085E9AC
:107F80000AD08FE07ACF813511F488E018D01DD067
:107F900080E101D065CF982F8091C00085FFFCCF94
:107FA0009093C60008958091C00087FFFCCF809118
:107FB000C00084FD01C0A8958091C6000895E0E648
:107FC000F0E098E1908380830895EDDF803219F02E
:107FD00088E0F5DFFFCF84E1DECF1F93182FE3DFCA
:107FE0001150E9F7F2DF1F91089580E0E8DFEE27F6
:047FF000FF270994CA
:027FFE00040479
:00000001FF
